:020000040800F2
:1000000098040020AD010008531200088111000877
:1000100051120008B9020008F9160008000000009B
:10002000000000000000000000000000571200085F
:10003000BB02000800000000551200085912000819
:10004000C7010008C7010008C7010008C701000870
:10005000C7010008C7010008C7010008C701000860
:10006000C7010008C7010008C7010008C701000850
:10007000C7010008C7010008C7010008C701000840
:10008000C7010008C7010008C7010008C701000830
:10009000C7010008C7010008C7010008C701000820
:1000A000C7010008C7010008C7010008C701000810
:1000B000C7010008C7010008C7010008C701000800
:1000C000C7010008C7010008C7010008C7010008F0
:1000D000C7010008C7010008C7010008C7010008E0
:1000E000C7010008C7010008C7010008C7010008D0
:1000F000C7010008C7010008C7010008C7010008C0
:10010000C70100080000000000000000C70100084F
:10011000C7010008C7010008C7010008C70100089F
:10012000C7010008C7010008C7010008C70100088F
:10013000C7010008C701000800000000000000001F
:10014000C7010008C7010008C7010008000000003F
:10015000000000000000000000000000000000009F
:10016000C7010008C7010008C7010008C70100084F
:10017000C7010008C7010008C7010008C70100083F
:10018000C7010008C70100080000000000000000CF
:10019000C7010008DFF810D000F07CF800480047E5
:1001A0004D170008AFF300809804002006488047F0
:1001B00006480047FEE7FEE7FEE7FEE7FEE7FEE74C
:1001C000FEE7FEE7FEE7FEE7CD1200089501000816
:1001D0002DE9F05F0546002092469B46884606467C
:1001E000814640241BE0284641464746224600F00F
:1001F00020F853465A46C01A914110D3114618466A
:10020000224600F038F82D1A67EB01084F462246C7
:100210000120002100F02FF817EB00094E41201EAD
:10022000A4F10104DFDC484631462A464346BDE8D6
:10023000F09F202A04DB203A21FA02F000217047C7
:1002400021FA02F3D040C2F120029140084319463E
:100250007047D2B201E000F8012B491EFBD2704773
:100260000022F6E710B513460A4604461946FFF782
:10027000F0FF204610BD202A04DB203A00FA02F1EC
:10028000002070479140C2F1200320FA03F3194384
:1002900090407047064C074D06E0E06840F00103CF
:1002A00094E8070098471034AC42F6D3FFF776FF86
:1002B000C8170008E8170008FEE770472DE9F04F5F
:1002C000DFF82492002201260325A9F1040B85B052
:1002D0000F2709F1040AABF1040EFCE006FA02F460
:1002E00023407CD091F804C00CF0030CBCF1010F4A
:1002F00002D0BCF1020F26D1D0F808C0CDF800C062
:100300004FEA420C05FA0CF8CDF810C0DDF800C039
:100310002CEA080CCDF800C0D1F80C80DDF810C034
:1003200008FA0CF8DDF800C048EA0C08C0F80880AC
:10033000D0F804C02CEA040C0C79C4F300149440E7
:1003400044EA0C0444600C79E443A4070ED0C4686A
:100350004FEA420805FA08FC24EA0C04D1F808C068
:100360000CFA08FC4CEA040CC0F80CC00C7904F040
:100370000304022C15D1D40800EB84040294246AEF
:100380004FEA427C4FEADC6807FA08FC24EA0C04D6
:10039000D1F810C00CFA08FC4CEA040C029CC4F81A
:1003A00020C004684FEA420805FA08FC24EA0C045D
:1003B00091F804C00CF0030C0CFA08FC4CEA040C95
:1003C000C0F800C04C6814F4403F08D0474CD4F843
:1003D00018C04CF0010CC4F818C0A46900E079E022
:1003E00004F001040094424C22F0030C6444029493
:1003F000A4684FEA827C4FEA1C7807FA08FC24EADA
:100400000C04B0F1904F06D0DFF8E8C0604505D18C
:100410004FF0010C27E04FF0000C24E0DFF8D8C0CB
:10042000604502D14FF0020C1DE0DFF8D0C06045FE
:1004300002D14FF0030C16E0DFF8C4C0604502D1D2
:100440004FF0040C0FE0DFF8BCC0604502D14FF064
:10045000050C08E0DFF8B0C0604502D14FF0060C93
:1004600001E04FF0070C0CFA08FC4CEA040C029C6B
:10047000C4F808C0D9F80040CC46D1F804809C43A9
:100480005FEAC82800D51C43CCF80040DAF80040E9
:10049000D446D1F804809C435FEA882800D51C43E9
:1004A000CCF80040DBF80040DC46D1F804809C43E7
:1004B0005FEA883800D51C43CCF80040DEF80040E5
:1004C000F446D1F804809C435FEAC83800D51C4349
:1004D000CCF80040521C0B6833FA02F47FF4FEAEF5
:1004E00005B0BDE8F08F0000080401400010024094
:1004F000000001400004004800080048000C0048CB
:100500000010004800140048001800480069084026
:1005100000D0012070470AB1816170478162704745
:100520000148806870470000000000200248816890
:10053000027811448160704700000020074810B520
:10054000016841F010010160032000F061F8002013
:1005500000F006F800F024F8002010BD0020024052
:1005600070B50D4D04464FF47A712878B1FBF0F068
:100570000A490968B1FBF0F000F08AFD48B9102C77
:1005800007D200222146501E00F022F800206C60A5
:1005900070BD012070BD0000000000200C00002094
:1005A0000A4882B0816941F001018161816901F0ED
:1005B00001010091C16941F08051C161C06900F041
:1005C00080500090072002B000F022B800100240D6
:1005D000F0B40E4B1B680C46C3F30223C3F10705AE
:1005E000042D00D90425191D072901D2002300E09C
:1005F000DB1E012606FA05F1491E214099409E4066
:10060000761E16403143F0BC01F080B80CED00E0DE
:10061000064900F0070208684FF6FF03184040EA59
:100620000220034A10430860704700000CED00E010
:100630000000FA052DE9F84F0446006800269F4D9A
:10064000C0036ED5E869C00008D4E86940F0805066
:10065000E861E869012600F0805000909848016840
:10066000C90512D40168804641F480710160FFF72A
:1006700057FF074605E000BFFFF752FFC01B642885
:1006800035D8D8F80000C005F6D5286A10F44070B7
:1006900053D0A18801F4407181424ED0286A4FF4B2
:1006A000803191FAA1F2B2FA82F29700854A4FF0B6
:1006B0000108174420F44070C7F8008491FAA1F1B2
:1006C000B1FA81F102EB81010023C1F80034286204
:1006D000C00732D0FFF724FF074641F2883A4FF0B7
:1006E000020907E0FFF71CFFC11B514502D9032097
:1006F000BDE8F88F99FAA9F1B1FA81F141F0400112
:100700004846B8EB511F01D129680CE090FAA0F1DE
:10071000B1FA81F141F04001B0EB511F02D1296AD9
:1007200001E015E0696A99FAA9F0B0FA80F000F0EA
:100730001F0008FA00F21142D4D0286A616820F440
:100740004070084328621EB1E86920F08050E861DB
:100750002078C00705D0286BA16820F0030008436B
:1007600028632078800705D5286BE16820F44030A5
:10077000084328632078400705D5286B216920F4B9
:100780004020084328632078800605D5286BE1695E
:1007900020F01000084328632068800305D56868AE
:1007A000616D20F48000084368602078400605D51C
:1007B000286B216A20F0200008432863206840034A
:1007C00005D5286B616A20F0400008432863207833
:1007D000000705D5286B616920F4401008432863A1
:1007E0002078C00605D5286BA16920F44000084395
:1007F00028632088800505D56868216B20F40000F7
:10080000084368602078000605D5E86AA16A20F4EC
:10081000F8700843E8622088C00505D5E86AE16AF7
:1008200020F478500843E8622088C00405D5286B7E
:10083000616B20F48070084328632088800405D50C
:10084000286B216C20F40070084328632068C002E4
:1008500005D5286BA16B20F08070084328632068C1
:10086000800205D5286BE16B20F0007008432863F7
:100870002068400205D5286B616C20F48060084335
:1008800028632068000205D5286BA16C20F4006065
:10089000084328632068C00105D5286BE16C20F46B
:1008A0000050084328632068800105D5286B216D1E
:1008B00020F4004008432863002019E7001002409C
:1008C00000700040000042422DE9F0470F4605004D
:1008D00069D04A4E306800F00700B84209D230684B
:1008E00020F0070038433060306800F00700B8425D
:1008F00059D12878424C800705D56068A96820F056
:10090000F000084360602878C0073DD06968012086
:1009100001290DD0022923D05FF0020393FAA3F23C
:10092000B2FA82F242F02002520904D0226803E0B7
:100930004FF40033F2E7626A93FAA3F3B3FA83F356
:1009400003F01F03984002422DD0606820F003009E
:1009500008436060FFF7E4FD804641F288390CE00F
:100960004FF00073DAE700BFFFF7DAFDA0EB0801F4
:10097000494502D90320BDE8F0876068696800F046
:100980000C00B0EB810FEFD1306800F00700B842E7
:100990000BD9306820F0070038433060306800F031
:1009A0000700B84201D00120E5E72878400705D5C7
:1009B0006068E96820F4E060084360602878000718
:1009C00006D56068296920F4605040EAC100606083
:1009D00000F04EF86168F02292FAA2F201F0F00104
:1009E000B2FA82F2D140074A515CC8400649086019
:1009F00006480068FFF7B4FD0020BCE70020024075
:100A000000100240B01700080C0000200400002075
:100A100008480949006849684FF4E06292FAA2F276
:100A200001F4E061B2FA82F2D140044A515CC8405C
:100A3000704700000C00002000100240C0170008A2
:100A400008480949006849684FF4605292FAA2F2D6
:100A500001F46051B2FA82F2D140044A515CC840BC
:100A6000704700000C00002000100240C017000872
:100A7000144A10B55168144801F00C03042B1FD020
:100A8000082B1DD14FF4701494FAA4F401F47013E0
:100A9000B4FA84F4E3400D4CD26AE45C0F2393FA79
:100AA000A3F302F00F02B3FA83F3DA40074BC90352
:100AB00010339A5C00231946FFF78AFBA0FB040160
:100AC00010BD00000010024000127A0090170008CC
:100AD0002DE9F84F04007DD02078FA4DC0074FF083
:100AE000010637D068687704C0F38100012819D067
:100AF0006868C0F38100022804D16868C0F3C1307F
:100B000002280FD06068B0F5803F24D010B1B0F556
:100B1000A02F2AD0286820F480302860286820F48C
:100B200080201BE097FAA7F0B0FA80F040F0200098
:100B3000400901D0286800E0686A97FAA7F1B1FA85
:100B400081F101F01F0106FA01F108424ED0606800
:100B50000028C0D04AE0286840F4803028606068EF
:100B600020B3FFF7DDFC80460AE0286840F48020CF
:100B70002860F0E7FFF7D4FCA0EB0800642873D8E6
:100B800097FAA7F0B0FA80F040F02000400901D0B9
:100B9000286800E0686A97FAA7F1B1FA81F101F0DC
:100BA0001F0106FA01F10842E4D01FE0FFF7B8FC8C
:100BB000804605E0FFF7B4FCA0EB08006428DED80F
:100BC00097FAA7F0B0FA80F040F02000400902D078
:100BD000286801E0B9E0686A97FAA7F1B1FA81F1F3
:100BE00001F01F0106FA01F10842E3D12078DFF895
:100BF000D88280074FF0000A4FF002075DD5686881
:100C00004FF0F80B10F00C0F15D06868C0F381009E
:100C1000022804D16868C0F3C13001280BD0E06815
:100C2000A0B396FAA6F0B0FA80F048F82060FFF77B
:100C300077FC814620E097FAA7F0B0FA80F040F008
:100C40002000400901D0286800E0686A97FAA7F1FF
:100C5000B1FA81F101F01F0106FA01F1084221D039
:100C6000E068012871D11DE056E100BFFFF758FC94
:100C7000A0EB09000228A2D897FAA7F0B0FA80F0FA
:100C800040F02000400902D0286801E016E0686AC0
:100C900097FAA7F1B1FA81F101F01F0106FA01F10B
:100CA0000842E3D028689BFAABF22169B2FA82F2DB
:100CB00020F0F80091400843286024E096FAA6F15D
:100CC000B1FA81F148F821A0FFF72AFC814605E03E
:100CD000FFF726FCA0EB09000228CCD897FAA7F072
:100CE000B0FA80F040F02000400901D0286800E010
:100CF000686A97FAA7F1B1FA81F101F01F0106FACB
:100D000001F10842E4D1207800076AD56069A0B3F8
:100D100096FAA6F0B0FA80F008EB8000C0F8806484
:100D2000FFF7FEFB814605E0FFF7FAFBA0EB0900A9
:100D30000228A0D897FAA7F0B0FA80F040F060003F
:100D4000B6EB501F02D128680CE09DE197FAA7F09E
:100D5000B0FA80F040F06000B7EB501F01D1286A74
:100D600000E0686A97FAA7F1B1FA81F101F01F017A
:100D700006FA01F21042D7D033E0FFE796FAA6F068
:100D8000B0FA80F008EB8000C0F880A4FFF7C8FB41
:100D9000814605E0FFF7C4FBA0EB090002289CD8C0
:100DA00097FAA7F0B0FA80F040F06000B6EB501F61
:100DB00001D128680BE097FAA7F0B0FA80F040F074
:100DC0006000B7EB501F01D1286A00E0686A97FA0B
:100DD000A7F1B1FA81F101F01F0106FA01F2104208
:100DE000D8D12078400774D5E8694FF00009C000D9
:100DF00009D4E86940F08050E861E8694FF00109E2
:100E000000F08050009031480168C90512D4016893
:100E100041F480710160FFF783FB834606E000BF69
:100E2000FFF77EFBA0EB0B00642875D8274800680D
:100E3000C005F5D5A06801280AD008B1052811D051
:100E4000286A20F001002862286A20F0040002E0ED
:100E5000286A40F001002862A068C8B3FFF760FB71
:100E600083460DE0286A40F004002862F0E700BFE6
:100E7000FFF756FBA0EB0B0141F2883081424BD8C3
:100E800097FAA7F0B0FA80F040F04000B6EB501FA0
:100E900001D128680BE097FAA7F0B0FA80F040F093
:100EA0004000B7EB501F01D1286A00E0686A97FA4A
:100EB000A7F1B1FA81F101F01F0106FA01F2104227
:100EC000D6D035E0001002400000424200700040E1
:100ED00000E034E0FFF724FB834607E0FFF720FB48
:100EE000A0EB0B0141F28830814215D897FAA7F0A8
:100EF000B0FA80F040F04000B6EB501F01D12868F6
:100F00000CE097FAA7F0B0FA80F040F04000B7EBA1
:100F1000501F02D1286A01E089E0686A97FAA7F1B8
:100F2000B1FA81F101F01F0106FA01F21042D5D1A8
:100F3000B9F1000F03D0E86920F08050E861A069A2
:100F400080B36968C1F38101022973D04FF08071C9
:100F50004F000228524609D091FAA1F0B0FA80F071
:100F600048F82020FFF7DCFA044664E091FAA1F08B
:100F7000B0FA80F08A46C14648F82020FFF7D0FA40
:100F8000804605E0FFF7CCFAA0EB080002284ED817
:100F900097FAA7F0B0FA80F040F02000400902D0A4
:100FA000286801E072E0686A97FAA7F1B1FA81F166
:100FB00001F01F0106FA01F10842E3D1E86A616A13
:100FC00020F00F000843E862D4E90710084369687D
:100FD00021F47611084368609AFAAAF0B0FA80F01A
:100FE00049F82060FFF79CFA044604E0FFF798FAFE
:100FF000001B02281BD897FAA7F0B0FA80F040F047
:101000002000400901D0286800E0686A97FAA7F13B
:10101000B1FA81F101F01F0106FA01F10842E5D0B1
:1010200034E000BFFFF77CFA001B022803D903203D
:10103000BDE8F88F15E097FAA7F0B0FA80F040F01D
:101040002000400901D0286800E0686A97FAA7F1FB
:10105000B1FA81F101F01F0106FA01F10842E1D174
:1010600014E00128E4D06868E96AE36900F4C0325A
:101070009A4209D1226A00F47010904204D101F022
:101080000F00616A884201D00120D1E70020CFE73C
:1010900010B5401EB0F1807F01D3012010BD4FF08C
:1010A000E02460610F21601700F030FB0020A06198
:1010B00007202061002010BD10B5040002D0E06FB1
:1010C00010B107E0012010BD002084F87800204610
:1010D00000F026F82420E0672068016821F0010173
:1010E0000160204600F0DEF90128ECD0606A10B102
:1010F000204600F0F9F82068416821F490414160F1
:101100002068816821F02A0181602068016841F02F
:10111000010101602046BDE8104000F049B900001F
:1011200010B586B0044614216846FFF799F81249B5
:10113000206888421ED11148C16941F40031C16163
:10114000C16901F400310591416941F40031416107
:101150004069694600F4003005900C2000900220A0
:101160000190002002900390072004904FF09040DF
:10117000FFF7A4F806B010BD004400400010024084
:10118000FEE7000030B587B014216846FFF768F825
:101190001F48416941F400214161416901F4002186
:1011A0000591416941F480014161416901F4800187
:1011B0000591416941F400314161416901F4003117
:1011C0000591416941F48021416140694FF09045AA
:1011D00000F480200590002220212846FFF79BF98B
:1011E0004FF4005000904FF404100024CDE90104A6
:1011F00069460848FFF762F8202000900120CDE9F9
:101200000104694628460394FFF758F807B030BD3B
:1012100000100240000800480C4810B50A4901605F
:101220004FF416414160002181600C22C160C0E989
:1012300004128161C16101624162FFF73DFF002834
:1012400001D072B6FEE710BD00440040100000203F
:10125000FEE7FEE770477047FFF768B930B5A5B005
:10126000282116A8FEF7FCFF142120A8FEF7F8FF9E
:1012700058216846FEF7F4FF01254FF4A020CDE980
:101280001650002416A819951C94FFF721FC08B1EC
:1012900072B6FEE70F20CDE920054FF48060CDE95E
:1012A0002240002120A82494FFF70EFB08B172B65B
:1012B000FEE70220009003946846FFF7BBF9002880
:1012C00001D072B6FEE725B030BD000005480168C8
:1012D00041F47001016003494FF0006080390860FB
:1012E0007047000088ED00E090F82410C90706D090
:1012F00001684A68836A22F400321A434A6090F80F
:101300002410890706D501684A68C36A22F480322E
:101310001A434A6090F82410490706D501684A68C4
:10132000036B22F480221A434A6090F824100907C4
:1013300006D501684A68436B22F400421A434A60AA
:1013400090F82410C90606D501688A68836B22F4D8
:1013500080521A438A6090F82410890606D50168E5
:101360008A68C36B22F400521A438A6090F82410F2
:10137000490611D501684A68036C22F480121A43A9
:101380004A60016CB1F5801F06D101684A68436C60
:1013900022F4C0021A434A6090F82410090606D5C8
:1013A00001684A68806C22F4002202434A60704758
:1013B0002DE9F84300260446C0F88460FFF7B0F832
:1013C0008046206800684FF0200500076FF07E47D8
:1013D00012D54346002229042046009700F046F922
:1013E00050B1216851E8000F20F0800041E8000270
:1013F000002AF6D1E56721E020680068400722D581
:10140000434600224FF480012046009700F02EF959
:10141000C8B1216851E8000F20F4907041E8000243
:10142000002AF6D12068083050E8001F21F00101A1
:1014300040E80012002AF5D1C4F8805084F87860A2
:101440000320BDE8F883E567C4F8805044F8606F76
:10145000666026760020F4E7016851E8002F22F448
:10146000907241E80023002BF6D10168083151E861
:10147000002F22F0010241E80023002BF5D1016E7C
:10148000012908D1026852E8001F21F0100142E84A
:101490000013002BF6D12021C0F880100021016636
:1014A0008166704770B5044680682169E269084327
:1014B000616900251143084321680A68634B1A409B
:1014C00002430A6020684168E26821F440511143F8
:1014D0004160A169206A084321688A6822F4306269
:1014E00002438A605A4A20685A4990420CD1086BDC
:1014F00010F0030006D001285FD002285FD0032837
:1015000045D158E0012143E0534A90420DD1086B88
:1015100010F440304DD0B0F5803F4ED0B0F5003FD4
:101520004DD0B0F5403F32D145E04C4A90420DD10C
:10153000086B10F440203CD0B0F5802F3DD0B0F5C2
:10154000002F3CD0B0F5402F21D134E0444A9042E6
:101550000DD1086B10F440102BD0B0F5801F2CD0AB
:10156000B0F5001F2BD0B0F5401F10D123E03D4A4D
:1015700090420CD1086B10F440001AD0B0F5800FE7
:101580001BD0B0F5000F1AD0B0F5400F13D01021CA
:10159000E3694FF40040344A4FF6EF7683422ED190
:1015A000092949D2DFE801F00D10134815484848D1
:1015B00018000021ECE70221EAE70421E8E708210E
:1015C000E6E7FFF725FA06E0FFF73AFA03E01046F0
:1015D00002E0FFF74DFA80B34100606801EB500173
:1015E000B1FBF0F0A0F11001B14225D84FF6F07137
:1015F0000140C0F3420001432068C16021E0092995
:101600001AD2DFE801F005080B190D19191910009D
:10161000FFF7FEF906E0FFF713FA03E0104602E0D9
:10162000FFF726FA48B1616800EB5100B0FBF1F01A
:10163000A0F11001B14201D9012502E0216880B278
:10164000C8600020A066E066284670BDF369FFEF21
:1016500000380140001002400044004000480040B3
:10166000004C00400050004000127A002DE9F04785
:10167000994617460E4604464FF00008089D2FE095
:10168000681C2DD0FEF74CFFA0EB0900A84214D82F
:101690009DB120680168490722D5C169C94309077E
:1016A0000DD4082505622046FFF7D6FEC4F8845005
:1016B00084F878800120BDE8F0870320FBE7C0694B
:1016C000C04300050CD421684FF400600862204636
:1016D000FFF7C2FE2020C4F8840084F87880ECE78D
:1016E0002068C06936EA000004D00020B842C7D0A4
:1016F0000020E0E70120F9E7FEE700000249086862
:1017000080F3088848680047008000080907090E30
:10171000002804DB00F1E02080F80014704700F09E
:101720000F0000F1E02080F8141D704702E008C8A7
:10173000121F08C1002AFAD170477047002001E04B
:1017400001C1121F002AFBD170470000FEF7F6FE10
:10175000FFF784FDFFF716FDFFF75EFD0B4D4FF41D
:1017600000544FF0904621462846FEF7CFFE38B190
:10177000012220213046FEF7CEFEFFF7BFFFF2E741
:10178000002220213046FEF7C6FEECE700080048A4
:1017900002030405060708090A0B0C0D0E0F1010B2
:1017A0000102030405060708090A0B0C0D0E0F10B1
:1017B0000000000000000000010203040607080901
:1017C0000000000001020304E817000800000020E8
:1017D000100000002C170008F81700081000002067
:1017E000880400003C170008010000001000000001
:0817F0000000000000127A0065
:040000050800019559
:00000001FF
